:10000000A4C0B1C0B0C0AFC0AEC07CC2ACC0ABC0B9
:10001000AAC0A9C0A8C0A7C0A6C0A5C0A4C0A3C0AC
:10002000A2C0A1C0A0C09FC09EC0000000044404A4
:100030000AA00004E4E404EC6C08248204ACA604E6
:1000400080000488840422240A4E4A044E4400009E
:1000500048000E0000000402444804AAA4026222E0
:100060000C248E0C2C2C0AAE220E8C2C068CA40E8A
:10007000224804A4A404A62C0040400040480248A2
:100080004200E0E00842480C24040E2EAE04AAEA26
:100090000CACAC0688860CAAAC0E8E8E0E8E880632
:1000A0008AA60AAEAA0E444E06222C08ACAA0888DC
:1000B0008E0AEAAA09DFB90EAAAE0CAC8804AAC659
:1000C0000CACAA06842C0E44440AAAAE0AAAA40ABE
:1000D000AAEA0AA4AA0AA4440E248E0644460A4E9A
:1000E000E40C444C04A00000000E08400000E2EEC6
:1000F000008EAE0006860026A6006E860064E40030
:10010000EE2C088CAA04044404044C088ACA004457
:100110004600CEEE000CAA004AA400CAC8006A62DB
:1001200000AC8800686C004E4600AAAE00AAA4008D
:10013000AAEA000A4A00AA4400E24E0648460444DD
:10014000440C424C05A00000000011241FBECFED5E
:10015000CDBF20E0A0E6B0E001C01D92A83AB207F2
:10016000E1F724D25BC24CCF0F931F93803208F08B
:1001700059C0603108F056C000E010E020E030E8DF
:1001800004C036952795179507958A95D2F7413083
:10019000B1F4E62F660FFF0BEE0FFF1FEE0FFF1FF0
:1001A000E859FF4F80819181A281B381082B192BDF
:1001B0002A2B3B2B008311832283338333C04111CD
:1001C0001AC0E62F660FFF0BEE0FFF1FEE0FFF1F8B
:1001D000E859FF4F009510952095309580819181C9
:1001E000A281B381082319232A233B23008311838F
:1001F0002283338317C04230A9F4E62F660FFF0B2A
:10020000EE0FFF1FEE0FFF1FE859FF4F8081918116
:10021000A281B38180279127A227B327808391836E
:10022000A283B3831F910F910895AF92BF92CF9293
:10023000DF92EF92FF920F931F93CF93DF93C82F1C
:10024000D62FA42EB22E842F8C1BE82E22F4E194FC
:10025000DD24DA9402C0DD24D3948B2D8D1BF82E7F
:1002600022F4F194CC24CA9402C0CC24C394402F2D
:100270006D2F8C2F79DFFE141CF0BD1214C023C02B
:10028000AC1609F1FF0CBE2CBB0C10E0CD0D1F0D00
:100290001E1514F0DC0D1B19402F6D2F8C2F64DF01
:1002A000AC12F4CF10C0EE0CAF2CAA0C10E0DC0D99
:1002B0001E0D1F1514F0CD0D1A19402F6D2F8C2F08
:1002C00053DFDB11F4CFDF91CF911F910F91FF909E
:1002D000EF90DF90CF90BF90AF900895882339F1D1
:1002E000E8E6F0E090E0DC01AA0FBB1FAA0FBB1FFD
:1002F000A859BF4F20E030E0A901480F591F4031F5
:1003000051052CF0108211821282138209C04D9186
:100310005D916D917C9113974083518362837383C8
:100320002F5F3F4F349614962031310529F70895F9
:10033000CF92DF92EF92FF92CF93DF93C82F8A3054
:1003400021F0809161008D3138F010926100809130
:1003500060008A5F80936000809160008B3028F09D
:100360008A50BCDF8AE080936000C03208F43FC04E
:1003700040916000509161003CE1351BEC2FF0E0B2
:10038000B097CF01880F991FE80FF91FE65DFF4F67
:1003900020E0C42FC20F849120FD03C082958F708E
:1003A00001C03196D0E0CC0FDD1FCC0FDD1FC85946
:1003B000DF4F8F7090E0A0E0B0E0032E04C0880F04
:1003C000991FAA1FBB1F0A94D2F7C880D980EA8060
:1003D000FB808C299D29AE29BF2988839983AA8314
:1003E000BB832F5F2630A9F65C5F50936100DF91DD
:1003F000CF91FF90EF90DF90CF9008958F708A306B
:1004000010F4805D01C0895C93DF08950F931F9302
:1004100080916600909167000196909367008093A9
:1004200066008132910590F48130910539F488EDB0
:1004300094E09BBD8ABD1092640050C0079709F0FC
:100440004DC080E590E09BBD8ABD48C0E09164004E
:10045000E03170F08630914008F440C0109267009F
:1004600010926600809165008F5F8093650036C0B2
:10047000F0E0EE0FFF1FEE0FFF1FE859FF4F408126
:100480005181628173818CB58C3DE8F380E28A01F1
:100490009B01002737FD039511272227332798B3A7
:1004A00000FB92F998BB0000000000000000000073
:1004B0000000440F551F661F771F815041F7C298F7
:1004C000809163008F5F809363008C3038F080915F
:1004D00064008F5F80936400109263001F910F91FE
:1004E00008951DBC1CBC84EF94E095BD84BD82EED4
:1004F0008FBD89E18EBD89B7806889BFBA9ABB9AE2
:10050000BC9A08951F920F920FB60F9211242F9349
:100510003F934F935F936F937F938F939F93AF938B
:10052000BF93EF93FF9372DFFF91EF91BF91AF9174
:100530009F918F917F916F915F914F913F912F91FB
:100540000F900FBE0F901F9018950F9301E02FE0B2
:100550004FE160E080E069DE2FE040E060E08FE1A5
:1005600064DE0F91089512B880E489B982E08BB9F6
:1005700088E18AB986E083B98898909A089520E046
:1005800030E090E40FC085B7806285BF889585B75D
:100590008F7D85BF2F5F3F4F213187E2380714F0F1
:1005A000909362005F9BEFCF8CB1089588B3836016
:1005B00088BB87B38C7F87BB94DFC7DFD4DF789499
:1005C000DEDFC82F86B390E08095909583709927E1
:1005D000892B89F480916200803410F010926200BF
:1005E00080916200E82FF0E0E859FF4FC0838F5FF1
:1005F00080936200E5CF86B390E0809590958370FC
:100600009927019719F48C2F93DEDACF8C2F8295DE
:100610008F70F4DE8C2F8F70F1DED2CFF894FFCF85
:00000001FF
